{
  "address": "0x322B4D07cB80CD624ea483dc17F9AA122Eb5c339",
  "abi": [
    {
      "inputs": [
        {
          "internalType": "address",
          "name": "_payoutToken",
          "type": "address"
        },
        {
          "internalType": "address",
          "name": "_initialOwner",
          "type": "address"
        }
      ],
      "stateMutability": "nonpayable",
      "type": "constructor"
    },
    {
      "anonymous": false,
      "inputs": [
        {
          "indexed": true,
          "internalType": "contract IOlympusAuthority",
          "name": "authority",
          "type": "address"
        }
      ],
      "name": "AuthorityUpdated",
      "type": "event"
    },
    {
      "anonymous": false,
      "inputs": [
        {
          "indexed": false,
          "internalType": "address",
          "name": "bondContract",
          "type": "address"
        },
        {
          "indexed": false,
          "internalType": "bool",
          "name": "approved",
          "type": "bool"
        }
      ],
      "name": "BondContractToggled",
      "type": "event"
    },
    {
      "anonymous": false,
      "inputs": [
        {
          "indexed": false,
          "internalType": "address",
          "name": "token",
          "type": "address"
        },
        {
          "indexed": false,
          "internalType": "address",
          "name": "destination",
          "type": "address"
        },
        {
          "indexed": false,
          "internalType": "uint256",
          "name": "amount",
          "type": "uint256"
        }
      ],
      "name": "Withdraw",
      "type": "event"
    },
    {
      "inputs": [],
      "name": "authority",
      "outputs": [
        {
          "internalType": "contract IOlympusAuthority",
          "name": "",
          "type": "address"
        }
      ],
      "stateMutability": "view",
      "type": "function"
    },
    {
      "inputs": [
        {
          "internalType": "address",
          "name": "",
          "type": "address"
        }
      ],
      "name": "bondContract",
      "outputs": [
        {
          "internalType": "bool",
          "name": "",
          "type": "bool"
        }
      ],
      "stateMutability": "view",
      "type": "function"
    },
    {
      "inputs": [
        {
          "internalType": "address",
          "name": "_principleTokenAddress",
          "type": "address"
        },
        {
          "internalType": "uint256",
          "name": "_amountPrincipleToken",
          "type": "uint256"
        },
        {
          "internalType": "uint256",
          "name": "_amountPayoutToken",
          "type": "uint256"
        }
      ],
      "name": "deposit",
      "outputs": [],
      "stateMutability": "nonpayable",
      "type": "function"
    },
    {
      "inputs": [],
      "name": "payoutToken",
      "outputs": [
        {
          "internalType": "address",
          "name": "",
          "type": "address"
        }
      ],
      "stateMutability": "view",
      "type": "function"
    },
    {
      "inputs": [
        {
          "internalType": "contract IOlympusAuthority",
          "name": "_newAuthority",
          "type": "address"
        }
      ],
      "name": "setAuthority",
      "outputs": [],
      "stateMutability": "nonpayable",
      "type": "function"
    },
    {
      "inputs": [
        {
          "internalType": "address",
          "name": "_bondContract",
          "type": "address"
        }
      ],
      "name": "toggleBondContract",
      "outputs": [],
      "stateMutability": "nonpayable",
      "type": "function"
    },
    {
      "inputs": [
        {
          "internalType": "address",
          "name": "_principleTokenAddress",
          "type": "address"
        },
        {
          "internalType": "uint256",
          "name": "_amount",
          "type": "uint256"
        }
      ],
      "name": "valueOfToken",
      "outputs": [
        {
          "internalType": "uint256",
          "name": "value_",
          "type": "uint256"
        }
      ],
      "stateMutability": "view",
      "type": "function"
    },
    {
      "inputs": [
        {
          "internalType": "address",
          "name": "_token",
          "type": "address"
        },
        {
          "internalType": "address",
          "name": "_destination",
          "type": "address"
        },
        {
          "internalType": "uint256",
          "name": "_amount",
          "type": "uint256"
        }
      ],
      "name": "withdraw",
      "outputs": [],
      "stateMutability": "nonpayable",
      "type": "function"
    }
  ],
  "transactionHash": "0xd4c59bf1378cfa22a317e599e7283a4460ff6a6010a9ca0f402b135c0a526897",
  "args": [
    "0xc83e6391dccf286ca64e67bac361faba69a48a61",
    "0x0d3BC4aABE3495cB446e5f6dAd278412c2b74767"
  ],
  "solcInputHash": "9752ab3c7a7deb5e6e734388b91d3d75",
  "bytecode": "0x60e0604052600c60a08190526b15539055551213d49256915160a21b60c090815261002d91600091906100da565b5034801561003a57600080fd5b50604051610e65380380610e658339818101604052604081101561005d57600080fd5b508051602090910151600180546001600160a01b0319166001600160a01b0383169081179091556040518291907f2f658b440c35314f52658ea8a740e05b284cdc84dc9ae01e891f21b8933e7cad90600090a2506001600160a01b0382166100c457600080fd5b5060601b6001600160601b03191660805261017b565b828054600181600116156101000203166002900490600052602060002090601f0160209004810192826101105760008555610156565b82601f1061012957805160ff1916838001178555610156565b82800160010185558215610156579182015b8281111561015657825182559160200191906001019061013b565b50610162929150610166565b5090565b5b808211156101625760008155600101610167565b60805160601c610cc36101a260003980610257528061029a52806104e45250610cc36000f3fe608060405234801561001057600080fd5b50600436106100885760003560e01c8063bf7e214f1161005b578063bf7e214f14610145578063d1b317e51461014d578063d9caed121461018b578063f95c2306146101c157610088565b80630efe6a8b1461008d57806324705db3146100c15780634efa82b6146100fb5780637a9e5e4b1461011f575b600080fd5b6100bf600480360360608110156100a357600080fd5b506001600160a01b0381351690602081013590604001356101e7565b005b6100e7600480360360208110156100d757600080fd5b50356001600160a01b0316610283565b604080519115158252519081900360200190f35b610103610298565b604080516001600160a01b039092168252519081900360200190f35b6100bf6004803603602081101561013557600080fd5b50356001600160a01b03166102bc565b610103610444565b6101796004803603604081101561016357600080fd5b506001600160a01b038135169060200135610453565b60408051918252519081900360200190f35b6100bf600480360360608110156101a157600080fd5b506001600160a01b03813581169160208101359091169060400135610571565b6100bf600480360360208110156101d757600080fd5b50356001600160a01b03166106c0565b3360009081526002602052604090205460ff166102355760405162461bcd60e51b8152600401808060200182810382526021815260200180610c966021913960400191505060405180910390fd5b61024a6001600160a01b038416333085610815565b61027e6001600160a01b037f000000000000000000000000000000000000000000000000000000000000000016338361099d565b505050565b60026020526000908152604090205460ff1681565b7f000000000000000000000000000000000000000000000000000000000000000081565b600160009054906101000a90046001600160a01b03166001600160a01b0316630c340a246040518163ffffffff1660e01b815260040160206040518083038186803b15801561030a57600080fd5b505afa15801561031e573d6000803e3d6000fd5b505050506040513d602081101561033457600080fd5b50516000906001600160a01b031633146103e15760405162461bcd60e51b81526020600482019081528254600260001961010060018416150201909116046024830181905290918291604490910190849080156103d25780601f106103a7576101008083540402835291602001916103d2565b820191906000526020600020905b8154815290600101906020018083116103b557829003601f168201915b50509250505060405180910390fd5b50600180547fffffffffffffffffffffffff0000000000000000000000000000000000000000166001600160a01b0383169081179091556040517f2f658b440c35314f52658ea8a740e05b284cdc84dc9ae01e891f21b8933e7cad90600090a250565b6001546001600160a01b031681565b600061056a836001600160a01b031663313ce5676040518163ffffffff1660e01b815260040160206040518083038186803b15801561049157600080fd5b505afa1580156104a5573d6000803e3d6000fd5b505050506040513d60208110156104bb57600080fd5b50516040805163313ce56760e01b8152905160ff909216600a0a91610564916001600160a01b037f0000000000000000000000000000000000000000000000000000000000000000169163313ce56791600480820192602092909190829003018186803b15801561052b57600080fd5b505afa15801561053f573d6000803e3d6000fd5b505050506040513d602081101561055557600080fd5b5051859060ff16600a0a610b1c565b90610b7e565b9392505050565b600160009054906101000a90046001600160a01b03166001600160a01b0316630505c8c96040518163ffffffff1660e01b815260040160206040518083038186803b1580156105bf57600080fd5b505afa1580156105d3573d6000803e3d6000fd5b505050506040513d60208110156105e957600080fd5b50516000906001600160a01b0316331461065c5760405162461bcd60e51b81526020600482019081528254600260001961010060018416150201909116046024830181905290918291604490910190849080156103d25780601f106103a7576101008083540402835291602001916103d2565b506106716001600160a01b038416838361099d565b604080516001600160a01b0380861682528416602082015280820183905290517f9b1bfa7fa9ee420a16e124f794c35ac9f90472acc99140eb2f6447c714cad8eb9181900360600190a1505050565b600160009054906101000a90046001600160a01b03166001600160a01b0316630505c8c96040518163ffffffff1660e01b815260040160206040518083038186803b15801561070e57600080fd5b505afa158015610722573d6000803e3d6000fd5b505050506040513d602081101561073857600080fd5b50516000906001600160a01b031633146107ab5760405162461bcd60e51b81526020600482019081528254600260001961010060018416150201909116046024830181905290918291604490910190849080156103d25780601f106103a7576101008083540402835291602001916103d2565b506001600160a01b038116600081815260026020908152604091829020805460ff19811660ff91821615179182905583519485521615159083015280517f661abc66f13f27ca765c6a753171d10aa4861f03f1b506c5b1297a2dc80cf8ee9281900390910190a150565b604080516001600160a01b0385811660248301528481166044830152606480830185905283518084039091018152608490920183526020820180517bffffffffffffffffffffffffffffffffffffffffffffffffffffffff166323b872dd60e01b17815292518251600094606094938a169392918291908083835b602083106108af5780518252601f199092019160209182019101610890565b6001836020036101000a0380198251168184511680821785525050505050509050019150506000604051808303816000865af19150503d8060008114610911576040519150601f19603f3d011682016040523d82523d6000602084013e610916565b606091505b5091509150818015610944575080511580610944575080806020019051602081101561094157600080fd5b50515b610995576040805162461bcd60e51b815260206004820152601460248201527f5452414e534645525f46524f4d5f4641494c4544000000000000000000000000604482015290519081900360640190fd5b505050505050565b604080516001600160a01b038481166024830152604480830185905283518084039091018152606490920183526020820180517bffffffffffffffffffffffffffffffffffffffffffffffffffffffff1663a9059cbb60e01b178152925182516000946060949389169392918291908083835b60208310610a2f5780518252601f199092019160209182019101610a10565b6001836020036101000a0380198251168184511680821785525050505050509050019150506000604051808303816000865af19150503d8060008114610a91576040519150601f19603f3d011682016040523d82523d6000602084013e610a96565b606091505b5091509150818015610ac4575080511580610ac45750808060200190516020811015610ac157600080fd5b50515b610b15576040805162461bcd60e51b815260206004820152600f60248201527f5452414e534645525f4641494c45440000000000000000000000000000000000604482015290519081900360640190fd5b5050505050565b600082610b2b57506000610b78565b82820282848281610b3857fe5b0414610b755760405162461bcd60e51b8152600401808060200182810382526021815260200180610c756021913960400191505060405180910390fd5b90505b92915050565b600061056a83836040518060400160405280601a81526020017f536166654d6174683a206469766973696f6e206279207a65726f00000000000081525060008183610c475760405162461bcd60e51b81526004018080602001828103825283818151815260200191508051906020019080838360005b83811015610c0c578181015183820152602001610bf4565b50505050905090810190601f168015610c395780820380516001836020036101000a031916815260200191505b509250505060405180910390fd5b506000838581610c5357fe5b049050838581610c5f57fe5b06818502018514610c6c57fe5b94935050505056fe536166654d6174683a206d756c7469706c69636174696f6e206f766572666c6f776d73672e73656e646572206973206e6f74206120626f6e6420636f6e7472616374a164736f6c6343000705000a",
  "devdoc": {
    "kind": "dev",
    "methods": {
      "deposit(address,uint256,uint256)": {
        "params": {
          "_amountPayoutToken": "uint",
          "_amountPrincipleToken": "uint",
          "_principleTokenAddress": "address"
        }
      },
      "toggleBondContract(address)": {
        "params": {
          "_bondContract": "address"
        }
      },
      "valueOfToken(address,uint256)": {
        "params": {
          "_amount": "uint",
          "_principleTokenAddress": "address"
        },
        "returns": {
          "value_": "uint"
        }
      },
      "withdraw(address,address,uint256)": {
        "params": {
          "_amount": "uint",
          "_destination": "address",
          "_token": "uint"
        }
      }
    },
    "version": 1
  },
  "userdoc": {
    "kind": "user",
    "methods": {
      "deposit(address,uint256,uint256)": {
        "notice": "deposit principle token and recieve back payout token"
      },
      "toggleBondContract(address)": {
        "notice": "toggle bond contract"
      },
      "valueOfToken(address,uint256)": {
        "notice": "returns payout token valuation of priciple"
      },
      "withdraw(address,address,uint256)": {
        "notice": "policy can withdraw ERC20 token to desired address"
      }
    },
    "version": 1
  },
  "storageLayout": {
    "storage": [
      {
        "astId": 17152,
        "contract": "contracts/custom/CustomTreasury.sol:CustomTreasury",
        "label": "UNAUTHORIZED",
        "offset": 0,
        "slot": "0",
        "type": "t_string_storage"
      },
      {
        "astId": 17154,
        "contract": "contracts/custom/CustomTreasury.sol:CustomTreasury",
        "label": "authority",
        "offset": 0,
        "slot": "1",
        "type": "t_contract(IOlympusAuthority)11591"
      },
      {
        "astId": 10419,
        "contract": "contracts/custom/CustomTreasury.sol:CustomTreasury",
        "label": "bondContract",
        "offset": 0,
        "slot": "2",
        "type": "t_mapping(t_address,t_bool)"
      }
    ],
    "types": {
      "t_address": {
        "encoding": "inplace",
        "label": "address",
        "numberOfBytes": "20"
      },
      "t_bool": {
        "encoding": "inplace",
        "label": "bool",
        "numberOfBytes": "1"
      },
      "t_contract(IOlympusAuthority)11591": {
        "encoding": "inplace",
        "label": "contract IOlympusAuthority",
        "numberOfBytes": "20"
      },
      "t_mapping(t_address,t_bool)": {
        "encoding": "mapping",
        "key": "t_address",
        "label": "mapping(address => bool)",
        "numberOfBytes": "32",
        "value": "t_bool"
      },
      "t_string_storage": {
        "encoding": "bytes",
        "label": "string",
        "numberOfBytes": "32"
      }
    }
  }
}